:100000000C942A000C9434000C9434000C943400AA
:100010000C9434000C9434000C9434000C94340090
:100020000C9434000C9434000C9434000C94340080
:100030000C9434000C9434000C9434000C94340070
:100040000C9434000C9434000C9434000C94340060
:100050000C94340011241FBECFE5D8E0DEBFCDBF25
:100060000E9436000C9450000C9400008FE08ABB74
:1000700061E048EC50E06BBB20E030E00EC0FA01DC
:100080003197F1F70197D9F78BB3880F880F8BBBA6
:100090002F5F3F4F2430310571F384EC99E0EFCFAF
:0400A000F894FFCF02
:00000001FF
